{
  "contractName": "Dividend",
  "abi": [
    {
      "inputs": [
        {
          "internalType": "string",
          "name": "_n",
          "type": "string"
        }
      ],
      "stateMutability": "nonpayable",
      "type": "constructor"
    },
    {
      "inputs": [],
      "name": "name",
      "outputs": [
        {
          "internalType": "string",
          "name": "",
          "type": "string"
        }
      ],
      "stateMutability": "view",
      "type": "function",
      "constant": true
    },
    {
      "inputs": [],
      "name": "owner",
      "outputs": [
        {
          "internalType": "address",
          "name": "",
          "type": "address"
        }
      ],
      "stateMutability": "view",
      "type": "function",
      "constant": true
    },
    {
      "inputs": [
        {
          "internalType": "uint256",
          "name": "dividend",
          "type": "uint256"
        }
      ],
      "name": "incomeDividend",
      "outputs": [
        {
          "internalType": "uint256",
          "name": "balance",
          "type": "uint256"
        }
      ],
      "stateMutability": "payable",
      "type": "function",
      "payable": true
    },
    {
      "inputs": [
        {
          "internalType": "uint256",
          "name": "amount",
          "type": "uint256"
        }
      ],
      "name": "withdrawalDividend",
      "outputs": [],
      "stateMutability": "nonpayable",
      "type": "function"
    }
  ],
  "bytecode": "0x608060405234801561001057600080fd5b506040516107b43803806107b48339818101604052810190610032919061019b565b8060009080519060200190610048929190610090565b5033600160006101000a81548173ffffffffffffffffffffffffffffffffffffffff021916908373ffffffffffffffffffffffffffffffffffffffff16021790555050610300565b82805461009c90610270565b90600052602060002090601f0160209004810192826100be5760008555610105565b82601f106100d757805160ff1916838001178555610105565b82800160010185558215610105579182015b828111156101045782518255916020019190600101906100e9565b5b5090506101129190610116565b5090565b5b8082111561012f576000816000905550600101610117565b5090565b60006101466101418461020d565b6101dc565b90508281526020810184848401111561015e57600080fd5b61016984828561023d565b509392505050565b600082601f83011261018257600080fd5b8151610192848260208601610133565b91505092915050565b6000602082840312156101ad57600080fd5b600082015167ffffffffffffffff8111156101c757600080fd5b6101d384828501610171565b91505092915050565b6000604051905081810181811067ffffffffffffffff82111715610203576102026102d1565b5b8060405250919050565b600067ffffffffffffffff821115610228576102276102d1565b5b601f19601f8301169050602081019050919050565b60005b8381101561025b578082015181840152602081019050610240565b8381111561026a576000848401525b50505050565b6000600282049050600182168061028857607f821691505b6020821081141561029c5761029b6102a2565b5b50919050565b7f4e487b7100000000000000000000000000000000000000000000000000000000600052602260045260246000fd5b7f4e487b7100000000000000000000000000000000000000000000000000000000600052604160045260246000fd5b6104a58061030f6000396000f3fe60806040526004361061003f5760003560e01c806306fdde03146100445780634ff71b961461006f5780638da5cb5b1461009f578063d5c09f0e146100ca575b600080fd5b34801561005057600080fd5b506100596100f3565b604051610066919061031e565b60405180910390f35b61008960048036038101906100849190610283565b610181565b6040516100969190610340565b60405180910390f35b3480156100ab57600080fd5b506100b46101f1565b6040516100c19190610303565b60405180910390f35b3480156100d657600080fd5b506100f160048036038101906100ec9190610283565b610217565b005b60008054610100906103e6565b80601f016020809104026020016040519081016040528092919081815260200182805461012c906103e6565b80156101795780601f1061014e57610100808354040283529160200191610179565b820191906000526020600020905b81548152906001019060200180831161015c57829003601f168201915b505050505081565b6000600160009054906101000a900473ffffffffffffffffffffffffffffffffffffffff1673ffffffffffffffffffffffffffffffffffffffff163373ffffffffffffffffffffffffffffffffffffffff16146101dd57600080fd5b8134146101e957600080fd5b479050919050565b600160009054906101000a900473ffffffffffffffffffffffffffffffffffffffff1681565b8047101561022457600080fd5b3373ffffffffffffffffffffffffffffffffffffffff166108fc829081150290604051600060405180830381858888f1935050505015801561026a573d6000803e3d6000fd5b5050565b60008135905061027d81610458565b92915050565b60006020828403121561029557600080fd5b60006102a38482850161026e565b91505092915050565b6102b581610377565b82525050565b60006102c68261035b565b6102d08185610366565b93506102e08185602086016103b3565b6102e981610447565b840191505092915050565b6102fd816103a9565b82525050565b600060208201905061031860008301846102ac565b92915050565b6000602082019050818103600083015261033881846102bb565b905092915050565b600060208201905061035560008301846102f4565b92915050565b600081519050919050565b600082825260208201905092915050565b600061038282610389565b9050919050565b600073ffffffffffffffffffffffffffffffffffffffff82169050919050565b6000819050919050565b60005b838110156103d15780820151818401526020810190506103b6565b838111156103e0576000848401525b50505050565b600060028204905060018216806103fe57607f821691505b6020821081141561041257610411610418565b5b50919050565b7f4e487b7100000000000000000000000000000000000000000000000000000000600052602260045260246000fd5b6000601f19601f8301169050919050565b610461816103a9565b811461046c57600080fd5b5056fea2646970667358221220611a017fced6d4a1fd87419495c8c7935ef845e589117581ed424fa1f25ff34f64736f6c63430008000033",
  "immutableReferences": {},
  "source": "// SPDX-License-Identifier: GPL-3.0\r\n\r\npragma solidity >=0.7.0 <0.9.0;\r\n\r\n\r\ncontract Dividend{\r\n\r\nstring public name;\r\naddress public owner;\r\n\r\n\r\n\r\nconstructor (string memory _n){\r\n    name = _n;\r\n    owner = msg.sender;\r\n\r\n}\r\n\r\n    function incomeDividend (uint256 dividend) public payable returns (uint256 balance){\r\n        require (msg.sender == owner);\r\n        require (msg.value == dividend);\r\n        return address(this).balance;\r\n\r\n    }\r\n\r\n    function withdrawalDividend (uint256 amount) public {\r\n        require(address(this).balance >= amount);\r\n        payable(msg.sender).transfer(amount);\r\n        \r\n   }\r\n\r\n}",
  "sourcePath": "C:\\Users\\robyser\\Desktop\\truffle\\contracts\\Dividend.sol",
  "compiler": {
    "name": "solc",
    "version": "0.8.0+commit.c7dfd78e.Emscripten.clang"
  },
  "schemaVersion": "3.4.9",
  "updatedAt": "2022-08-26T07:42:51.816Z",
  "networkType": "ethereum",
  "devdoc": {
    "kind": "dev",
    "methods": {},
    "version": 1
  },
  "userdoc": {
    "kind": "user",
    "methods": {},
    "version": 1
  }
}